{
  "abi": [
    {
      "inputs": [],
      "stateMutability": "nonpayable",
      "type": "constructor"
    },
    {
      "anonymous": false,
      "inputs": [
        {
          "indexed": true,
          "internalType": "address",
          "name": "owner",
          "type": "address"
        },
        {
          "indexed": true,
          "internalType": "address",
          "name": "spender",
          "type": "address"
        },
        {
          "indexed": false,
          "internalType": "uint256",
          "name": "value",
          "type": "uint256"
        }
      ],
      "name": "Approval",
      "type": "event"
    },
    {
      "anonymous": false,
      "inputs": [
        {
          "indexed": true,
          "internalType": "address",
          "name": "from",
          "type": "address"
        },
        {
          "indexed": true,
          "internalType": "address",
          "name": "to",
          "type": "address"
        },
        {
          "indexed": false,
          "internalType": "uint256",
          "name": "value",
          "type": "uint256"
        }
      ],
      "name": "Transfer",
      "type": "event"
    },
    {
      "inputs": [
        {
          "internalType": "address",
          "name": "owner",
          "type": "address"
        },
        {
          "internalType": "address",
          "name": "spender",
          "type": "address"
        }
      ],
      "name": "allowance",
      "outputs": [
        {
          "internalType": "uint256",
          "name": "",
          "type": "uint256"
        }
      ],
      "stateMutability": "view",
      "type": "function"
    },
    {
      "inputs": [
        {
          "internalType": "address",
          "name": "spender",
          "type": "address"
        },
        {
          "internalType": "uint256",
          "name": "amount",
          "type": "uint256"
        }
      ],
      "name": "approve",
      "outputs": [
        {
          "internalType": "bool",
          "name": "",
          "type": "bool"
        }
      ],
      "stateMutability": "nonpayable",
      "type": "function"
    },
    {
      "inputs": [
        {
          "internalType": "address",
          "name": "account",
          "type": "address"
        }
      ],
      "name": "balanceOf",
      "outputs": [
        {
          "internalType": "uint256",
          "name": "",
          "type": "uint256"
        }
      ],
      "stateMutability": "view",
      "type": "function"
    },
    {
      "inputs": [],
      "name": "decimals",
      "outputs": [
        {
          "internalType": "uint8",
          "name": "",
          "type": "uint8"
        }
      ],
      "stateMutability": "view",
      "type": "function"
    },
    {
      "inputs": [
        {
          "internalType": "address",
          "name": "spender",
          "type": "address"
        },
        {
          "internalType": "uint256",
          "name": "subtractedValue",
          "type": "uint256"
        }
      ],
      "name": "decreaseAllowance",
      "outputs": [
        {
          "internalType": "bool",
          "name": "",
          "type": "bool"
        }
      ],
      "stateMutability": "nonpayable",
      "type": "function"
    },
    {
      "inputs": [
        {
          "internalType": "address",
          "name": "spender",
          "type": "address"
        },
        {
          "internalType": "uint256",
          "name": "addedValue",
          "type": "uint256"
        }
      ],
      "name": "increaseAllowance",
      "outputs": [
        {
          "internalType": "bool",
          "name": "",
          "type": "bool"
        }
      ],
      "stateMutability": "nonpayable",
      "type": "function"
    },
    {
      "inputs": [
        {
          "internalType": "address",
          "name": "mintTo",
          "type": "address"
        },
        {
          "internalType": "uint256",
          "name": "mintAmount",
          "type": "uint256"
        }
      ],
      "name": "mint",
      "outputs": [],
      "stateMutability": "nonpayable",
      "type": "function"
    },
    {
      "inputs": [],
      "name": "name",
      "outputs": [
        {
          "internalType": "string",
          "name": "",
          "type": "string"
        }
      ],
      "stateMutability": "view",
      "type": "function"
    },
    {
      "inputs": [
        {
          "internalType": "bool",
          "name": "_willBreak",
          "type": "bool"
        }
      ],
      "name": "setWillBreak",
      "outputs": [],
      "stateMutability": "nonpayable",
      "type": "function"
    },
    {
      "inputs": [],
      "name": "symbol",
      "outputs": [
        {
          "internalType": "string",
          "name": "",
          "type": "string"
        }
      ],
      "stateMutability": "view",
      "type": "function"
    },
    {
      "inputs": [],
      "name": "totalSupply",
      "outputs": [
        {
          "internalType": "uint256",
          "name": "",
          "type": "uint256"
        }
      ],
      "stateMutability": "view",
      "type": "function"
    },
    {
      "inputs": [
        {
          "internalType": "address",
          "name": "to",
          "type": "address"
        },
        {
          "internalType": "uint256",
          "name": "amount",
          "type": "uint256"
        }
      ],
      "name": "transfer",
      "outputs": [
        {
          "internalType": "bool",
          "name": "",
          "type": "bool"
        }
      ],
      "stateMutability": "nonpayable",
      "type": "function"
    },
    {
      "inputs": [
        {
          "internalType": "address",
          "name": "from",
          "type": "address"
        },
        {
          "internalType": "address",
          "name": "to",
          "type": "address"
        },
        {
          "internalType": "uint256",
          "name": "amount",
          "type": "uint256"
        }
      ],
      "name": "transferFrom",
      "outputs": [
        {
          "internalType": "bool",
          "name": "",
          "type": "bool"
        }
      ],
      "stateMutability": "nonpayable",
      "type": "function"
    },
    {
      "inputs": [],
      "name": "willBreak",
      "outputs": [
        {
          "internalType": "bool",
          "name": "",
          "type": "bool"
        }
      ],
      "stateMutability": "view",
      "type": "function"
    }
  ],
  "bytecode": {
    "object": "0x608060405234801561001057600080fd5b50604051806040016040528060048152602001634d6f636b60e01b815250604051806040016040528060048152602001634d4f434b60e01b815250816003908051906020019061006192919061007d565b50805161007590600490602084019061007d565b505050610150565b82805461008990610116565b90600052602060002090601f0160209004810192826100ab57600085556100f1565b82601f106100c457805160ff19168380011785556100f1565b828001600101855582156100f1579182015b828111156100f15782518255916020019190600101906100d6565b506100fd929150610101565b5090565b5b808211156100fd5760008155600101610102565b600181811c9082168061012a57607f821691505b60208210810361014a57634e487b7160e01b600052602260045260246000fd5b50919050565b6109ef8061015f6000396000f3fe608060405234801561001057600080fd5b50600436106100ea5760003560e01c806340c10f191161008c578063a457c2d711610066578063a457c2d7146101de578063a9059cbb146101f1578063dd62ed3e14610204578063e8f745bb1461021757600080fd5b806340c10f191461019a57806370a08231146101ad57806395d89b41146101d657600080fd5b806323b872dd116100c857806323b872dd14610142578063313ce567146101555780633950935114610164578063398e38691461017757600080fd5b806306fdde03146100ef578063095ea7b31461010d57806318160ddd14610130575b600080fd5b6100f7610224565b604051610104919061080b565b60405180910390f35b61012061011b36600461087c565b6102b6565b6040519015158152602001610104565b6002545b604051908152602001610104565b6101206101503660046108a6565b6102ce565b60405160128152602001610104565b61012061017236600461087c565b6102f2565b6101986101853660046108e2565b6005805460ff1916911515919091179055565b005b6101986101a836600461087c565b610314565b6101346101bb36600461090b565b6001600160a01b031660009081526020819052604090205490565b6100f7610322565b6101206101ec36600461087c565b610331565b6101206101ff36600461087c565b6103b1565b610134610212366004610926565b6103bf565b6005546101209060ff1681565b60606003805461023390610959565b80601f016020809104026020016040519081016040528092919081815260200182805461025f90610959565b80156102ac5780601f10610281576101008083540402835291602001916102ac565b820191906000526020600020905b81548152906001019060200180831161028f57829003601f168201915b5050505050905090565b6000336102c48185856103ea565b5060019392505050565b6000336102dc85828561050e565b6102e7858585610588565b506001949350505050565b6000336102c481858561030583836103bf565b61030f9190610993565b6103ea565b61031e82826105a8565b5050565b60606004805461023390610959565b6000338161033f82866103bf565b9050838110156103a45760405162461bcd60e51b815260206004820152602560248201527f45524332303a2064656372656173656420616c6c6f77616e63652062656c6f77604482015264207a65726f60d81b60648201526084015b60405180910390fd5b6102e782868684036103ea565b6000336102c4818585610588565b6001600160a01b03918216600090815260016020908152604080832093909416825291909152205490565b6001600160a01b03831661044c5760405162461bcd60e51b8152602060048201526024808201527f45524332303a20617070726f76652066726f6d20746865207a65726f206164646044820152637265737360e01b606482015260840161039b565b6001600160a01b0382166104ad5760405162461bcd60e51b815260206004820152602260248201527f45524332303a20617070726f766520746f20746865207a65726f206164647265604482015261737360f01b606482015260840161039b565b6001600160a01b0383811660008181526001602090815260408083209487168084529482529182902085905590518481527f8c5be1e5ebec7d5bd14f71427d1e84f3dd0314c0f7b2291e5b200ac8c7c3b925910160405180910390a3505050565b600061051a84846103bf565b9050600019811461058257818110156105755760405162461bcd60e51b815260206004820152601d60248201527f45524332303a20696e73756666696369656e7420616c6c6f77616e6365000000604482015260640161039b565b61058284848484036103ea565b50505050565b60055460ff161561059857600080fd5b6105a3838383610667565b505050565b6001600160a01b0382166105fe5760405162461bcd60e51b815260206004820152601f60248201527f45524332303a206d696e7420746f20746865207a65726f206164647265737300604482015260640161039b565b80600260008282546106109190610993565b90915550506001600160a01b038216600081815260208181526040808320805486019055518481527fddf252ad1be2c89b69c2b068fc378daa952ba7f163c4a11628f55a4df523b3ef910160405180910390a35050565b6001600160a01b0383166106cb5760405162461bcd60e51b815260206004820152602560248201527f45524332303a207472616e736665722066726f6d20746865207a65726f206164604482015264647265737360d81b606482015260840161039b565b6001600160a01b03821661072d5760405162461bcd60e51b815260206004820152602360248201527f45524332303a207472616e7366657220746f20746865207a65726f206164647260448201526265737360e81b606482015260840161039b565b6001600160a01b038316600090815260208190526040902054818110156107a55760405162461bcd60e51b815260206004820152602660248201527f45524332303a207472616e7366657220616d6f756e7420657863656564732062604482015265616c616e636560d01b606482015260840161039b565b6001600160a01b03848116600081815260208181526040808320878703905593871680835291849020805487019055925185815290927fddf252ad1be2c89b69c2b068fc378daa952ba7f163c4a11628f55a4df523b3ef910160405180910390a3610582565b600060208083528351808285015260005b818110156108385785810183015185820160400152820161081c565b8181111561084a576000604083870101525b50601f01601f1916929092016040019392505050565b80356001600160a01b038116811461087757600080fd5b919050565b6000806040838503121561088f57600080fd5b61089883610860565b946020939093013593505050565b6000806000606084860312156108bb57600080fd5b6108c484610860565b92506108d260208501610860565b9150604084013590509250925092565b6000602082840312156108f457600080fd5b8135801515811461090457600080fd5b9392505050565b60006020828403121561091d57600080fd5b61090482610860565b6000806040838503121561093957600080fd5b61094283610860565b915061095060208401610860565b90509250929050565b600181811c9082168061096d57607f821691505b60208210810361098d57634e487b7160e01b600052602260045260246000fd5b50919050565b600082198211156109b457634e487b7160e01b600052601160045260246000fd5b50019056fea2646970667358221220b4e25c58349e84e629cd7dab2d8e5da9ee84ad0cbca394313019a65b68a2d6c864736f6c634300080d0033",
    "linkReferences": {}
  },
  "methodIdentifiers": {
    "allowance(address,address)": "dd62ed3e",
    "approve(address,uint256)": "095ea7b3",
    "balanceOf(address)": "70a08231",
    "decimals()": "313ce567",
    "decreaseAllowance(address,uint256)": "a457c2d7",
    "increaseAllowance(address,uint256)": "39509351",
    "mint(address,uint256)": "40c10f19",
    "name()": "06fdde03",
    "setWillBreak(bool)": "398e3869",
    "symbol()": "95d89b41",
    "totalSupply()": "18160ddd",
    "transfer(address,uint256)": "a9059cbb",
    "transferFrom(address,address,uint256)": "23b872dd",
    "willBreak()": "e8f745bb"
  },
  "id": 18
}