{
  "abi": [
    {
      "inputs": [
        {
          "internalType": "address",
          "name": "_veKwenta",
          "type": "address"
        },
        {
          "internalType": "address",
          "name": "_kwenta",
          "type": "address"
        },
        {
          "internalType": "address",
          "name": "_rewardEscrow",
          "type": "address"
        }
      ],
      "stateMutability": "nonpayable",
      "type": "constructor"
    },
    {
      "inputs": [
        {
          "internalType": "address",
          "name": "caller",
          "type": "address"
        },
        {
          "internalType": "uint256",
          "name": "callerBalance",
          "type": "uint256"
        }
      ],
      "name": "InvalidCallerBalance",
      "type": "error"
    },
    {
      "inputs": [
        {
          "internalType": "uint256",
          "name": "contractBalance",
          "type": "uint256"
        }
      ],
      "name": "InvalidContractBalance",
      "type": "error"
    },
    {
      "inputs": [
        {
          "internalType": "address",
          "name": "caller",
          "type": "address"
        }
      ],
      "name": "TransferFailed",
      "type": "error"
    },
    {
      "anonymous": false,
      "inputs": [
        {
          "indexed": true,
          "internalType": "address",
          "name": "redeemer",
          "type": "address"
        },
        {
          "indexed": true,
          "internalType": "address",
          "name": "beneficiary",
          "type": "address"
        },
        {
          "indexed": false,
          "internalType": "uint256",
          "name": "redeemedAmount",
          "type": "uint256"
        }
      ],
      "name": "Redeemed",
      "type": "event"
    },
    {
      "inputs": [],
      "name": "kwenta",
      "outputs": [
        {
          "internalType": "address",
          "name": "",
          "type": "address"
        }
      ],
      "stateMutability": "view",
      "type": "function"
    },
    {
      "inputs": [
        {
          "internalType": "address",
          "name": "_beneficiary",
          "type": "address"
        }
      ],
      "name": "redeem",
      "outputs": [],
      "stateMutability": "nonpayable",
      "type": "function"
    },
    {
      "inputs": [],
      "name": "rewardEscrow",
      "outputs": [
        {
          "internalType": "address",
          "name": "",
          "type": "address"
        }
      ],
      "stateMutability": "view",
      "type": "function"
    },
    {
      "inputs": [],
      "name": "veKwenta",
      "outputs": [
        {
          "internalType": "address",
          "name": "",
          "type": "address"
        }
      ],
      "stateMutability": "view",
      "type": "function"
    }
  ],
  "bytecode": {
    "object": "0x60e060405234801561001057600080fd5b5060405161064938038061064983398101604081905261002f91610068565b6001600160a01b0392831660805290821660a0521660c0526100ab565b80516001600160a01b038116811461006357600080fd5b919050565b60008060006060848603121561007d57600080fd5b6100868461004c565b92506100946020850161004c565b91506100a26040850161004c565b90509250925092565b60805160a05160c0516105486101016000396000818160ae0152818161033801526104050152600081816056015281816101a5015261036701526000818160d50152818161010f015261028a01526105486000f3fe608060405234801561001057600080fd5b506004361061004c5760003560e01c80639034802b1461005157806395a2251f14610094578063a430be6c146100a9578063a757fb49146100d0575b600080fd5b6100787f000000000000000000000000000000000000000000000000000000000000000081565b6040516001600160a01b03909116815260200160405180910390f35b6100a76100a23660046104a7565b6100f7565b005b6100787f000000000000000000000000000000000000000000000000000000000000000081565b6100787f000000000000000000000000000000000000000000000000000000000000000081565b6040516370a0823160e01b81523360048201526000907f00000000000000000000000000000000000000000000000000000000000000006001600160a01b0316906370a0823190602401602060405180830381865afa15801561015e573d6000803e3d6000fd5b505050506040513d601f19601f8201168201806040525081019061018291906104d7565b6040516370a0823160e01b81523060048201529091506000906001600160a01b037f000000000000000000000000000000000000000000000000000000000000000016906370a0823190602401602060405180830381865afa1580156101ec573d6000803e3d6000fd5b505050506040513d601f19601f8201168201806040525081019061021091906104d7565b905081600003610241576040516301ef1ffd60e61b8152336004820152602481018390526044015b60405180910390fd5b808211156102655760405163a6b317c360e01b815260048101829052602401610238565b6040516323b872dd60e01b8152336004820152306024820152604481018390526000907f00000000000000000000000000000000000000000000000000000000000000006001600160a01b0316906323b872dd906064016020604051808303816000875af11580156102db573d6000803e3d6000fd5b505050506040513d601f19601f820116820180604052508101906102ff91906104f0565b905080610321576040516339f1c8d960e01b8152336004820152602401610238565b60405163095ea7b360e01b81526001600160a01b037f000000000000000000000000000000000000000000000000000000000000000081166004830152602482018590527f0000000000000000000000000000000000000000000000000000000000000000169063095ea7b3906044016020604051808303816000875af11580156103b0573d6000803e3d6000fd5b505050506040513d601f19601f820116820180604052508101906103d491906104f0565b5060405163a0416ed360e01b81526001600160a01b038581166004830152602482018590526301dfe20060448301527f0000000000000000000000000000000000000000000000000000000000000000169063a0416ed390606401600060405180830381600087803b15801561044957600080fd5b505af115801561045d573d6000803e3d6000fd5b50506040518581526001600160a01b03871692503391507f27d4634c833b7622a0acddbf7f746183625f105945e95c723ad1d5a9f2a0b6fc9060200160405180910390a350505050565b6000602082840312156104b957600080fd5b81356001600160a01b03811681146104d057600080fd5b9392505050565b6000602082840312156104e957600080fd5b5051919050565b60006020828403121561050257600080fd5b815180151581146104d057600080fdfea26469706673582212207cc79b2dcc27c0e24371fe57db6dec411ead3b004fc839bf8f76e7cb20113af564736f6c634300080d0033",
    "linkReferences": {}
  },
  "methodIdentifiers": {
    "kwenta()": "9034802b",
    "redeem(address)": "95a2251f",
    "rewardEscrow()": "a430be6c",
    "veKwenta()": "a757fb49"
  },
  "id": 18
}