{
  "abi": [
    {
      "inputs": [
        {
          "internalType": "address",
          "name": "_l1Token",
          "type": "address"
        },
        {
          "internalType": "string",
          "name": "_name",
          "type": "string"
        },
        {
          "internalType": "string",
          "name": "_symbol",
          "type": "string"
        }
      ],
      "stateMutability": "nonpayable",
      "type": "constructor"
    },
    {
      "anonymous": false,
      "inputs": [
        {
          "indexed": true,
          "internalType": "address",
          "name": "owner",
          "type": "address"
        },
        {
          "indexed": true,
          "internalType": "address",
          "name": "spender",
          "type": "address"
        },
        {
          "indexed": false,
          "internalType": "uint256",
          "name": "value",
          "type": "uint256"
        }
      ],
      "name": "Approval",
      "type": "event"
    },
    {
      "anonymous": false,
      "inputs": [
        {
          "indexed": true,
          "internalType": "address",
          "name": "_account",
          "type": "address"
        },
        {
          "indexed": false,
          "internalType": "uint256",
          "name": "_amount",
          "type": "uint256"
        }
      ],
      "name": "Burn",
      "type": "event"
    },
    {
      "anonymous": false,
      "inputs": [
        {
          "indexed": true,
          "internalType": "address",
          "name": "_account",
          "type": "address"
        },
        {
          "indexed": false,
          "internalType": "uint256",
          "name": "_amount",
          "type": "uint256"
        }
      ],
      "name": "Mint",
      "type": "event"
    },
    {
      "anonymous": false,
      "inputs": [
        {
          "indexed": true,
          "internalType": "address",
          "name": "from",
          "type": "address"
        },
        {
          "indexed": true,
          "internalType": "address",
          "name": "to",
          "type": "address"
        },
        {
          "indexed": false,
          "internalType": "uint256",
          "name": "value",
          "type": "uint256"
        }
      ],
      "name": "Transfer",
      "type": "event"
    },
    {
      "inputs": [
        {
          "internalType": "address",
          "name": "owner",
          "type": "address"
        },
        {
          "internalType": "address",
          "name": "spender",
          "type": "address"
        }
      ],
      "name": "allowance",
      "outputs": [
        {
          "internalType": "uint256",
          "name": "",
          "type": "uint256"
        }
      ],
      "stateMutability": "view",
      "type": "function"
    },
    {
      "inputs": [
        {
          "internalType": "address",
          "name": "spender",
          "type": "address"
        },
        {
          "internalType": "uint256",
          "name": "amount",
          "type": "uint256"
        }
      ],
      "name": "approve",
      "outputs": [
        {
          "internalType": "bool",
          "name": "",
          "type": "bool"
        }
      ],
      "stateMutability": "nonpayable",
      "type": "function"
    },
    {
      "inputs": [
        {
          "internalType": "address",
          "name": "account",
          "type": "address"
        }
      ],
      "name": "balanceOf",
      "outputs": [
        {
          "internalType": "uint256",
          "name": "",
          "type": "uint256"
        }
      ],
      "stateMutability": "view",
      "type": "function"
    },
    {
      "inputs": [
        {
          "internalType": "address",
          "name": "_from",
          "type": "address"
        },
        {
          "internalType": "uint256",
          "name": "_amount",
          "type": "uint256"
        }
      ],
      "name": "burn",
      "outputs": [],
      "stateMutability": "nonpayable",
      "type": "function"
    },
    {
      "inputs": [],
      "name": "decimals",
      "outputs": [
        {
          "internalType": "uint8",
          "name": "",
          "type": "uint8"
        }
      ],
      "stateMutability": "view",
      "type": "function"
    },
    {
      "inputs": [
        {
          "internalType": "address",
          "name": "spender",
          "type": "address"
        },
        {
          "internalType": "uint256",
          "name": "subtractedValue",
          "type": "uint256"
        }
      ],
      "name": "decreaseAllowance",
      "outputs": [
        {
          "internalType": "bool",
          "name": "",
          "type": "bool"
        }
      ],
      "stateMutability": "nonpayable",
      "type": "function"
    },
    {
      "inputs": [
        {
          "internalType": "address",
          "name": "spender",
          "type": "address"
        },
        {
          "internalType": "uint256",
          "name": "addedValue",
          "type": "uint256"
        }
      ],
      "name": "increaseAllowance",
      "outputs": [
        {
          "internalType": "bool",
          "name": "",
          "type": "bool"
        }
      ],
      "stateMutability": "nonpayable",
      "type": "function"
    },
    {
      "inputs": [],
      "name": "l1Token",
      "outputs": [
        {
          "internalType": "address",
          "name": "",
          "type": "address"
        }
      ],
      "stateMutability": "view",
      "type": "function"
    },
    {
      "inputs": [],
      "name": "l2Bridge",
      "outputs": [
        {
          "internalType": "address",
          "name": "",
          "type": "address"
        }
      ],
      "stateMutability": "view",
      "type": "function"
    },
    {
      "inputs": [
        {
          "internalType": "address",
          "name": "_to",
          "type": "address"
        },
        {
          "internalType": "uint256",
          "name": "_amount",
          "type": "uint256"
        }
      ],
      "name": "mint",
      "outputs": [],
      "stateMutability": "nonpayable",
      "type": "function"
    },
    {
      "inputs": [],
      "name": "name",
      "outputs": [
        {
          "internalType": "string",
          "name": "",
          "type": "string"
        }
      ],
      "stateMutability": "view",
      "type": "function"
    },
    {
      "inputs": [
        {
          "internalType": "bytes4",
          "name": "_interfaceId",
          "type": "bytes4"
        }
      ],
      "name": "supportsInterface",
      "outputs": [
        {
          "internalType": "bool",
          "name": "",
          "type": "bool"
        }
      ],
      "stateMutability": "pure",
      "type": "function"
    },
    {
      "inputs": [],
      "name": "symbol",
      "outputs": [
        {
          "internalType": "string",
          "name": "",
          "type": "string"
        }
      ],
      "stateMutability": "view",
      "type": "function"
    },
    {
      "inputs": [],
      "name": "totalSupply",
      "outputs": [
        {
          "internalType": "uint256",
          "name": "",
          "type": "uint256"
        }
      ],
      "stateMutability": "view",
      "type": "function"
    },
    {
      "inputs": [
        {
          "internalType": "address",
          "name": "to",
          "type": "address"
        },
        {
          "internalType": "uint256",
          "name": "amount",
          "type": "uint256"
        }
      ],
      "name": "transfer",
      "outputs": [
        {
          "internalType": "bool",
          "name": "",
          "type": "bool"
        }
      ],
      "stateMutability": "nonpayable",
      "type": "function"
    },
    {
      "inputs": [
        {
          "internalType": "address",
          "name": "from",
          "type": "address"
        },
        {
          "internalType": "address",
          "name": "to",
          "type": "address"
        },
        {
          "internalType": "uint256",
          "name": "amount",
          "type": "uint256"
        }
      ],
      "name": "transferFrom",
      "outputs": [
        {
          "internalType": "bool",
          "name": "",
          "type": "bool"
        }
      ],
      "stateMutability": "nonpayable",
      "type": "function"
    }
  ],
  "bytecode": {
    "object": "0x60c06040523480156200001157600080fd5b506040516200104938038062001049833981016040819052620000349162000207565b8151829082906200004d90600390602085019062000094565b5080516200006390600490602084019062000094565b5050506001600160a01b03909216608052505073420000000000000000000000000000000000001060a052620002cd565b828054620000a29062000291565b90600052602060002090601f016020900481019282620000c6576000855562000111565b82601f10620000e157805160ff191683800117855562000111565b8280016001018555821562000111579182015b8281111562000111578251825591602001919060010190620000f4565b506200011f92915062000123565b5090565b5b808211156200011f576000815560010162000124565b634e487b7160e01b600052604160045260246000fd5b600082601f8301126200016257600080fd5b81516001600160401b03808211156200017f576200017f6200013a565b604051601f8301601f19908116603f01168101908282118183101715620001aa57620001aa6200013a565b81604052838152602092508683858801011115620001c757600080fd5b600091505b83821015620001eb5785820183015181830184015290820190620001cc565b83821115620001fd5760008385830101525b9695505050505050565b6000806000606084860312156200021d57600080fd5b83516001600160a01b03811681146200023557600080fd5b60208501519093506001600160401b03808211156200025357600080fd5b620002618783880162000150565b935060408601519150808211156200027857600080fd5b50620002878682870162000150565b9150509250925092565b600181811c90821680620002a657607f821691505b602082108103620002c757634e487b7160e01b600052602260045260246000fd5b50919050565b60805160a051610d486200030160003960008181610220015281816103ed01526104ca0152600061025f0152610d486000f3fe608060405234801561001057600080fd5b50600436106101005760003560e01c806370a0823111610097578063a9059cbb11610066578063a9059cbb14610208578063ae1f6aaf1461021b578063c01e1bd61461025a578063dd62ed3e1461028157600080fd5b806370a08231146101b157806395d89b41146101da5780639dc29fac146101e2578063a457c2d7146101f557600080fd5b806323b872dd116100d357806323b872dd14610167578063313ce5671461017a578063395093511461018957806340c10f191461019c57600080fd5b806301ffc9a71461010557806306fdde031461012d578063095ea7b31461014257806318160ddd14610155575b600080fd5b610118610113366004610b5c565b610294565b60405190151581526020015b60405180910390f35b6101356102f2565b6040516101249190610b8d565b610118610150366004610bfe565b610384565b6002545b604051908152602001610124565b610118610175366004610c28565b61039c565b60405160128152602001610124565b610118610197366004610bfe565b6103c0565b6101af6101aa366004610bfe565b6103e2565b005b6101596101bf366004610c64565b6001600160a01b031660009081526020819052604090205490565b6101356104b0565b6101af6101f0366004610bfe565b6104bf565b610118610203366004610bfe565b61057c565b610118610216366004610bfe565b6105f7565b6102427f000000000000000000000000000000000000000000000000000000000000000081565b6040516001600160a01b039091168152602001610124565b6102427f000000000000000000000000000000000000000000000000000000000000000081565b61015961028f366004610c7f565b610605565b60007f01ffc9a7a5cef8baa21ed3c5c0d7e23accb804b619e9333b597f47a0d84076e2631d1d8b6360e01b6001600160e01b031984166301ffc9a760e01b14806102ea57506001600160e01b0319848116908216145b949350505050565b60606003805461030190610cb2565b80601f016020809104026020016040519081016040528092919081815260200182805461032d90610cb2565b801561037a5780601f1061034f5761010080835404028352916020019161037a565b820191906000526020600020905b81548152906001019060200180831161035d57829003601f168201915b5050505050905090565b600033610392818585610630565b5060019392505050565b6000336103aa858285610755565b6103b58585856107cf565b506001949350505050565b6000336103928185856103d38383610605565b6103dd9190610cec565b610630565b336001600160a01b037f0000000000000000000000000000000000000000000000000000000000000000161461045f5760405162461bcd60e51b815260206004820181905260248201527f4f6e6c79204c32204272696467652063616e206d696e7420616e64206275726e60448201526064015b60405180910390fd5b6104698282610973565b816001600160a01b03167f0f6798a560793a54c3bcfe86a93cde1e73087d944c0ea20544137d4121396885826040516104a491815260200190565b60405180910390a25050565b60606004805461030190610cb2565b336001600160a01b037f000000000000000000000000000000000000000000000000000000000000000016146105375760405162461bcd60e51b815260206004820181905260248201527f4f6e6c79204c32204272696467652063616e206d696e7420616e64206275726e6044820152606401610456565b6105418282610a32565b816001600160a01b03167fcc16f5dbb4873280815c1ee09dbd06736cffcc184412cf7a71a0fdb75d397ca5826040516104a491815260200190565b6000338161058a8286610605565b9050838110156105ea5760405162461bcd60e51b815260206004820152602560248201527f45524332303a2064656372656173656420616c6c6f77616e63652062656c6f77604482015264207a65726f60d81b6064820152608401610456565b6103b58286868403610630565b6000336103928185856107cf565b6001600160a01b03918216600090815260016020908152604080832093909416825291909152205490565b6001600160a01b0383166106925760405162461bcd60e51b8152602060048201526024808201527f45524332303a20617070726f76652066726f6d20746865207a65726f206164646044820152637265737360e01b6064820152608401610456565b6001600160a01b0382166106f35760405162461bcd60e51b815260206004820152602260248201527f45524332303a20617070726f766520746f20746865207a65726f206164647265604482015261737360f01b6064820152608401610456565b6001600160a01b0383811660008181526001602090815260408083209487168084529482529182902085905590518481527f8c5be1e5ebec7d5bd14f71427d1e84f3dd0314c0f7b2291e5b200ac8c7c3b92591015b60405180910390a3505050565b60006107618484610605565b905060001981146107c957818110156107bc5760405162461bcd60e51b815260206004820152601d60248201527f45524332303a20696e73756666696369656e7420616c6c6f77616e63650000006044820152606401610456565b6107c98484848403610630565b50505050565b6001600160a01b0383166108335760405162461bcd60e51b815260206004820152602560248201527f45524332303a207472616e736665722066726f6d20746865207a65726f206164604482015264647265737360d81b6064820152608401610456565b6001600160a01b0382166108955760405162461bcd60e51b815260206004820152602360248201527f45524332303a207472616e7366657220746f20746865207a65726f206164647260448201526265737360e81b6064820152608401610456565b6001600160a01b0383166000908152602081905260409020548181101561090d5760405162461bcd60e51b815260206004820152602660248201527f45524332303a207472616e7366657220616d6f756e7420657863656564732062604482015265616c616e636560d01b6064820152608401610456565b6001600160a01b03848116600081815260208181526040808320878703905593871680835291849020805487019055925185815290927fddf252ad1be2c89b69c2b068fc378daa952ba7f163c4a11628f55a4df523b3ef910160405180910390a36107c9565b6001600160a01b0382166109c95760405162461bcd60e51b815260206004820152601f60248201527f45524332303a206d696e7420746f20746865207a65726f2061646472657373006044820152606401610456565b80600260008282546109db9190610cec565b90915550506001600160a01b038216600081815260208181526040808320805486019055518481527fddf252ad1be2c89b69c2b068fc378daa952ba7f163c4a11628f55a4df523b3ef910160405180910390a35050565b6001600160a01b038216610a925760405162461bcd60e51b815260206004820152602160248201527f45524332303a206275726e2066726f6d20746865207a65726f206164647265736044820152607360f81b6064820152608401610456565b6001600160a01b03821660009081526020819052604090205481811015610b065760405162461bcd60e51b815260206004820152602260248201527f45524332303a206275726e20616d6f756e7420657863656564732062616c616e604482015261636560f01b6064820152608401610456565b6001600160a01b0383166000818152602081815260408083208686039055600280548790039055518581529192917fddf252ad1be2c89b69c2b068fc378daa952ba7f163c4a11628f55a4df523b3ef9101610748565b600060208284031215610b6e57600080fd5b81356001600160e01b031981168114610b8657600080fd5b9392505050565b600060208083528351808285015260005b81811015610bba57858101830151858201604001528201610b9e565b81811115610bcc576000604083870101525b50601f01601f1916929092016040019392505050565b80356001600160a01b0381168114610bf957600080fd5b919050565b60008060408385031215610c1157600080fd5b610c1a83610be2565b946020939093013593505050565b600080600060608486031215610c3d57600080fd5b610c4684610be2565b9250610c5460208501610be2565b9150604084013590509250925092565b600060208284031215610c7657600080fd5b610b8682610be2565b60008060408385031215610c9257600080fd5b610c9b83610be2565b9150610ca960208401610be2565b90509250929050565b600181811c90821680610cc657607f821691505b602082108103610ce657634e487b7160e01b600052602260045260246000fd5b50919050565b60008219821115610d0d57634e487b7160e01b600052601160045260246000fd5b50019056fea26469706673582212205e1f3d4afc3f354ff7ded4c48fed64e689c064a0224f5ca0e6f0ca6bff1deaab64736f6c634300080d0033",
    "linkReferences": {}
  },
  "methodIdentifiers": {
    "allowance(address,address)": "dd62ed3e",
    "approve(address,uint256)": "095ea7b3",
    "balanceOf(address)": "70a08231",
    "burn(address,uint256)": "9dc29fac",
    "decimals()": "313ce567",
    "decreaseAllowance(address,uint256)": "a457c2d7",
    "increaseAllowance(address,uint256)": "39509351",
    "l1Token()": "c01e1bd6",
    "l2Bridge()": "ae1f6aaf",
    "mint(address,uint256)": "40c10f19",
    "name()": "06fdde03",
    "supportsInterface(bytes4)": "01ffc9a7",
    "symbol()": "95d89b41",
    "totalSupply()": "18160ddd",
    "transfer(address,uint256)": "a9059cbb",
    "transferFrom(address,address,uint256)": "23b872dd"
  },
  "id": 21
}